:020000040800F2
:10000000182300209D010008F93400085D2900082C
:10001000F5340008890B00080142000800000000C8
:100020000000000000000000000000002D35000866
:10003000191000080000000029350008E93A0008FE
:10004000B7010008B7010008B7010008B7010008B0
:10005000B7010008B7010008B7010008B7010008A0
:10006000B7010008B7010008B7010008B701000890
:10007000B7010008B7010008B7010008B701000880
:10008000B7010008B7010008B7010008B701000870
:10009000B7010008B7010008B7010008B701000860
:1000A000B7010008B7010008B7010008B701000850
:1000B000B7010008B7010008B7010008B701000840
:1000C000B7010008B7010008B7010008B701000830
:1000D000B7010008D1410008E1410008F1410008E2
:1000E000B7010008B7010008B7010008B701000810
:1000F000B7010008B7010008B7010008B701000800
:10010000B7010008B7010008A93B0008B7010008C3
:10011000D93E0008B7010008B7010008B701000880
:10012000B7010008B7010008B7010008B7010008CF
:10013000B7010008B7010008B7010008B7010008BF
:10014000B7010008B7010008B7010008B7010008AF
:10015000B7010008B7010008B7010008B70100089F
:10016000B7010008B7010008B7010008B70100088F
:10017000B7010008B7010008B7010008000000003F
:10018000B7010008B7010008DFF80CD000F064FCEC
:1001900000480047A943000818230020064880476C
:1001A00006480047FEE7FEE7FEE7FEE7FEE7FEE75C
:1001B000FEE7FEE7FEE7FEE78D3B00088901000849
:1001C0002DE9F05F0546002092469B46884606468C
:1001D000814640241BE0284641464746224600F01F
:1001E00051FA53465A46C01A914110D31146184647
:1001F000224600F038FA2D1A67EB01084F462246D6
:100200000120002100F02FFA17EB00094E41201EBB
:10021000A4F10104DFDC484631462A464346BDE8E6
:10022000F09F40EA01039B0703D009E008C9121FB1
:1002300008C0042AFAD203E011F8013B00F8013BA0
:10024000521EF9D27047D2B201E000F8012B491ECC
:10025000FBD270470022F6E710B513460A46044663
:100260001946FFF7F0FF204610BD30B505462A4677
:100270000B4612F8010B13F8014B08B1A042F8D05D
:100280001CB1002802D06D1CF1E7284630BD70B5C6
:10029000064604F04DF9046805460A22002130465E
:1002A00000F012FA2C6070BD2DE9FE4F804681EA05
:1002B0000300C00F0C46009021F0004123F00045E0
:1002C000B8EB0200A94105D24046214690461C46A3
:1002D0000B46024623F00040104347D0270DC7F3DA
:1002E0000A00C3F30A510290401A019040286BDAC9
:1002F000C3F3130040F4801B0098924620B1002302
:10030000D2EB030A63EB0B0B01985946C0F1400294
:10031000504600F0A8F906460D4650465946019A47
:1003200000F0C0F910EB08006141002487EA115287
:1003300084EAE7731A4340D0009A62B3019A012A13
:100340004FEA075215DC001B61EB02014FF000423F
:1003500002EA0752CDE90042001C41F58011324605
:100360002B4600F02FFA03B0BDE8F08F404621463F
:10037000F9E7001B61EB0201001C41F58013001836
:100380005B412018A2F5001747EB030140EAD57046
:10039000B6196D4111E06D084FEA360645EAC075A1
:1003A0004FEA0752001B61EB0201001C41F580116E
:1003B00049084FEA30000019514132462B4603B03C
:1003C000BDE8F04F00F0EFB9009801224000002393
:1003D000D0EB020263EBE073009821464FEAE07431
:1003E000B8EB000061EB0401E9E783F000435BE751
:1003F00081F0004158E72DE9FE4F81EA030404F043
:10040000004421F0004100944FF0000B23F0004322
:1004100050EA01045ED052EA03045BD0C3F30A54ED
:10042000C1F30A552C44A4F2F3340194A0FB025406
:10043000C1F3130141F48011C3F3130343F4801398
:1004400001FB024400FB034E840A970A44EA8154EC
:1004500047EA8357A4FB076802958D0A05FB0785C9
:100460004FEA932C04FB0C542705029D4FEA0658D3
:1004700047EA1637B5EB08056EEB070C870E920EB0
:1004800047EA811742EA8312A7FB0201B6EB0B0190
:1004900064EB00042B0D43EA0C335E1844EB1C5054
:1004A000DA465146E7FB0201C5F313044FEA0B336A
:1004B00043EA14534FEA0432019C43EA0603A4F1D1
:1004C0000C040294009CCDE900B400F07BF903B069
:1004D000BDE8F08F00200146F9E730B5041E71F148
:1004E000000404DB4FF00044404264EB0101141EA1
:1004F00073F1000405DB1C464FF00043524263EBEE
:100500000403801A994101D3012030BD002030BD81
:1005100030B5041E71F1000404DB4FF0004440428A
:1005200064EB0101141E73F1000405DB1C464FF05F
:100530000043524263EB0403101A8B4101D20120A5
:1005400030BD002030BD30B5041E71F1000404DB65
:100550004FF00044404264EB0101141E73F10004AB
:1005600005DB1C464FF00043524263EB0403801A44
:10057000994101D2012030BD002030BD0EB5C10F20
:1005800080EAE0700844CA07002140F233438DE856
:100590000E000A460B4600F015F903B000BD70B519
:1005A000C1F30A5201F000450024C1F3130140F2E7
:1005B000FF3341F480119A4201DA002070BD40F20D
:1005C00033439A42A2F2334203DC524200F05AF81B
:1005D00000E090402C43F1D0404270BD00F000425A
:1005E00030F000400AD0C10D01F56071C0F3160073
:1005F00042EA0151C20840071143704700200146FA
:10060000704701F0004330B421F0004150EA01028C
:1006100006D00A0DA2F56072C1F31301002A02DCB4
:1006200030BC00207047440F44EAC104C100E01808
:1006300030BC00EBC25000F07FB830B50B4601462D
:1006400000202022012409E021FA02F59D4205D371
:1006500003FA02F5491B04FA02F52844151EA2F11B
:100660000102F1DC30BD202A04DB203A00FA02F15D
:10067000002070479140C2F1200320FA03F3194390
:1006800090407047202A04DB203A21FA02F0002132
:10069000704721FA02F3D040C2F120029140084392
:1006A00019467047202A06DBCB17203A41FA02F0A0
:1006B00043EAE07306E041FA02F3D040C2F12002BF
:1006C00091400843194670472DE9F04791460F467F
:1006D00080460446002614F8015B2DB100F0CEF9E7
:1006E0000068405DC007F6D12B2D02D02D2D18D00B
:1006F000641E4A463946204600F0C4F927B13968DD
:10070000A14201D1C7F8008071054FF002040BD55A
:100710004042002803DD03F00BFF0460A007BDE8A2
:10072000F08746F48066E4E70028F8DA03F000FF7B
:1007300004606FF00040F2E70029A8BF7047401C3A
:10074000490008BF20F00100704710B4B0FA80FCE7
:1007500000FA0CF050EA010404BF10BC704749B124
:10076000CCF1200421FA04F411FA0CF118BF012194
:1007700021430843A3EB0C01CB1D4FEA00614FEA74
:10078000102042BF002010BC704700EBC350104443
:100790000029A4BF10BC7047401C490008BF20F0CE
:1007A000010010BC704710B5141E73F1000408DA84
:1007B000401C41F1000192185B411A4301D120F025
:1007C000010010BD2DE9F04D92469B4611B1B1FAE2
:1007D00081F202E0B0FA80F220329046FFF743FF48
:1007E00004460F4640EA0A0041EA0B0153465A46C6
:1007F000084313D0114653EA010019D0C8F1400252
:100800005046FFF73FFF05460E46504659464246C2
:10081000FFF729FF084305D0012004E020463946B0
:10082000BDE8F08D0020054346EAE0762C433743CF
:100830000A986305E40AA0EB08000022FD0A44EAD6
:1008400047540A3002D500200146E9E70105101996
:100850006941DDE9084500196941BDE8F04DA2E7AD
:100860002DE9F04D81EA030404F0004B21F000452E
:1008700014464FF0000A23F0004150EA050220D050
:1008800054EA01021DD0C5F30A570246C5F313030B
:10089000C1F31300C1F30A5640F4801543F48013EA
:1008A000A7EB0608101BD64608F2FD3873EB0500CF
:1008B00002D308F1010801E092185B41B8F1000F82
:1008C00003DA00200146BDE8F08D00204FF48011CE
:1008D000064684460EE0171B73EB050705D3121B73
:1008E00063EB050306434CEA010C49084FEA30006C
:1008F00092185B4150EA0107EDD152EA030012D091
:1009000082EA040083EA0501084305D0101BAB41CD
:1009100006D20122002306E000224FF0004302E04D
:100920006FF0010253101AEB06004CEB085110EB6C
:100930000A0041EB0B01BDE8F04DFFF734BF0000AA
:100940002DE9F041054621F000400C46284309D02E
:10095000C4F30A5040F23341884205DD284621465F
:10096000BDE8F0812846FBE740F2FE31884210DC0A
:100970000CDB4FEA043040EA155050EA053105D04F
:10098000104804F0004101430020E9E7002001463F
:10099000E6E7A0F233404642C6F14002284621462F
:1009A000FFF761FE07468846284621463246FFF794
:1009B00069FE43463A46FFF7F6FE3246BDE8F0418F
:1009C000FFF751BE0000F03FC1F30A52C1F313011B
:1009D00040F2FF3341F480119A4202DA00200146CE
:1009E000704740F233439A42A2F2334202DC524251
:1009F000FFF748BEFFF737BE30B5041E71F10004A3
:100A000004DB4FF00044404264EB0101141E73F11B
:100A1000000405DB1C464FF00043524263EB040325
:100A20008B4208BF824230BD30B5041E71F1000414
:100A300004DB4FF00044404264EB0101141E73F1EB
:100A4000000405DB1C464FF00043524263EB0403F5
:100A5000994208BF904230BD064C074D06E0E06861
:100A600040F0010394E8070098471034AC42F6D3F5
:100A7000FFF78EFBA44F0008C44F000800487047E2
:100A8000844F00082DE9F05F824600780027154664
:100A90008B460AF10104B946302801D09DB113E01C
:100AA00014F8010B0127782803D0582801D045B14C
:100AB0000AE00DB1102D07D10027102514F8010B05
:100AC00002E0082500E00A250026B0460EE005FBFE
:100AD000080005FB06F1012701EB10461FFA80F81C
:100AE000B6F5803F00D3B94614F8010B294600F053
:100AF00018F80028EBDABBF1000F05D00FB1641E27
:100B000000E05446CBF80040B9F1000F06D003F0E6
:100B10000FFD02210160C81EBDE8F09F48EA0640B3
:100B2000FAE73A2800D2303820F02002412A01D3D7
:100B3000A2F13700884201D34FF0FF307047000028
:100B400010B541F20004C4F2020420464021012203
:100B500000F09CFBC82000F0BBFA20464021002298
:100B600000F094FBC82000F0B3FA20464021012297
:100B700000F08CFBC82000F0ABFA20464021002298
:100B800000F084FB10BD0000FEE700002DE9F041FD
:100B900040F22404C2F200040078227840F23501C9
:100BA000C2F2000188540B78501C572B20704DD195
:100BB0004FF0FF3252FA80F28B5C582B18BFBDE821
:100BC000F0814B7840F29426C2F2000601254D2BAD
:100BD000356018D0462B39D1C0B2042840F2490004
:100BE000C2F2000025D340F228080223C2F2000816
:100BF000022500BF0135CF5C1E18EBB29A4206F801
:100C0000027CF7DC1EE0C0B2042840F28420C2F26D
:100C1000000013D340F280280223C2F2000802250C
:100C20000135CE5C1F18EBB29A4207F8026CF7DC74
:100C300008E040F22808C2F2000803E040F28028F1
:100C4000C2F20008FFF723FBC8F800000020207064
:100C5000BDE8F0812DE9F04F8FB040F23C2CC2F29C
:100C6000000CDCF800000CF1080E0E90DCF804001B
:100C7000DCE905B50D90DCE90C400CF11C0ADCE95F
:100C80000E1CCDE908400BA0CDE90A1C0C9002A86F
:100C90009EE80C409AE8C007CDE900EB80E8E0034D
:100CA000DDE90D10CDF81CA003F0EEFB0FB0BDE8A0
:100CB000F08F00BF5743580A000000002DE9F04FA5
:100CC0008FB040F23C2CC2F2000CDCF800000CF1BA
:100CD000080E0E90DCF80400DCE905B50D90DCE9A7
:100CE0000C400CF11C0ADCE90E1CCDE908400BA0FD
:100CF000CDE90A1C0C9002A89EE80C409AE8C007B7
:100D0000CDE900EB80E8E003DDE90D10CDF81CA093
:100D100003F0BAFB0FB0BDE8F08F00BF5746580A8A
:100D2000000000002DE9F04F8FB040F23C2CC2F2E1
:100D3000000CDCF800000CF1080E0E90DCF804004A
:100D4000DCE905B50D90DCE90C400CF11C0ADCE98E
:100D50000E1CCDE908400BA0CDE90A1C0C9002A89E
:100D60009EE80C409AE8C007CDE900EB80E8E0037C
:100D7000DDE90D10CDF81CA003F086FB0FB0BDE837
:100D8000F08F00BF574E580A000000002DE9F04FC9
:100D900095B040F22C04C2F20004204602F072F832
:100DA00094ED000A03F07CFA40F23000C2F2000039
:100DB000007840F2A424C2F2000401EE100A84ED8F
:100DC000000AB8EE411A30B1B4EE410AF1EE10FA61
:100DD00001DDFFF7B5FE01F0E1FF40F20D30C2F298
:100DE000000000F01DF994ED000A002002F0DEFC86
:100DF0002068FFF7F3FB41EC100B40F2260040F2B5
:100E00007C14C2F20000C2F20004B0F800C02068F6
:100E1000D4E9033E1490606804F1140B1390A068A9
:100E20003034129017CCCDF840C00DF1200C9BE867
:100E3000E00F8CE8170008A00C9002A8CDE900E5AF
:100E400080E8C00F1498DDE912218DED0E0B03F040
:100E50001BFB15B0BDE8F08FCCE5CEC2252E326667
:100E6000202020BEE0C0EB2025646D6D0A0000004C
:100E700010B501F093FF40F20D30C2F2000000F017
:100E8000CFF840F22C00C2F2000001F0FBFF40F26C
:100E90003000C2F20000007840F2200400EE100A98
:100EA000C2F20004B8EE400A40B194ED001AB4EE6C
:100EB000401AF1EE10FA01DDFFF742FE94ED000A50
:100EC000002002F073FC10BDB0B540F22804C2F25D
:100ED00000042168062002F033FD40F20805C2F24A
:100EE0000005286820B1FFF7E9FE2868013828606E
:100EF00040F27C20C2F200000168012903D10021E8
:100F00000160FFF7A7FE2068012804BF00202060D1
:100F100001F03AFF40F20C0040F22C04C2F2000053
:100F20000521C2F200040160204601F0ABFF40F24F
:100F30002000C2F2000090ED000A03F0B1F940F287
:100F4000A42594ED001AC2F2000585ED000AB0EE6A
:100F5000410A03F0A5F940F20D30C2F2000085ED20
:100F6000000A00F05DF8B0BDB0B540F20C04C2F26A
:100F70000004206820B1FFF7D5FE2068013820600A
:100F800040F22C04C2F20004204601F07BFF40F244
:100F90002602C2F200021288206840F21801C2F252
:100FA000000100EE102A0860B8EE400A81ED010A47
:100FB00000EE100A03F074F940F2A42440F20D3060
:100FC000C2F20004C2F2000084ED000A00F028F82A
:100FD00094ED000A0020002402F0E8FB01F0D4FEAA
:100FE00040F28025C2F20005298840F20800C2F2D2
:100FF000000005220129026005D106A1082002F0A7
:1010000019FB2C80B0BD02A1082002F013FBB0BD7B
:10101000B7F10000CAC70000704700007047000029
:10102000B0B582B005460078012831D140F2A92040
:10103000C2F200001CA1FFF718F903786D2B0DD048
:101040000130002101AA00BFA3F13004092C9CBF8C
:101050005354013110F8013B6D2BF5D101A8FFF776
:1010600016F9FFF78BFA9FED0C0B53EC102BFFF7E3
:10107000C2F99FED0B0B53EC102BFFF715F9FFF79F
:101080008EFA40F22601C2F200010880002028708A
:1010900002B0B0BD00BF00BFB29DEFA7C64BEB3F93
:1010A00052B81E85EB1120C0643A000090F835104C
:1010B000022909D1052180F835100068016821F066
:1010C00001010160002070478021416501207047C7
:1010D000B0B5044600F0E0F8054640F21000C2F258
:1010E00000000078611C18BF044400BF00F0D4F871
:1010F000401BA042FAD3B0BD2DE9F04F83B000F100
:101100003E4202F1FF724FEAB22241F600470192DD
:10111000C4F202070822012600254FF000084FF014
:101120000009B84208BF0722009209E009F101094D
:1011300008F10408B9F1100F05F1020500F0A380D1
:101140000C6806FA09FB14EA0B0CEFD0D1F804A0E6
:10115000BAF1120F17D806FA0AF414F0061F12D0CB
:1011600084680322CF6802FA05FE24EA0E04AF4029
:10117000274387604768CAF3001427EA0B0704FA7D
:1011800009F4274347600322C76802FA05F48A6816
:10119000A743AA403A434AF010076FEA040E122F01
:1011A000C26010D16FF0030202EA59020244176ACA
:1011B00008F01C060F230C69B34027EA0303B44070
:1011C00001262343136202684B6802EA0E0203F011
:1011D0000307AF403A43DB000260A7D5002243F685
:1011E00044030292C4F202031A6843F6004442F434
:1011F00080421A601A68C4F2010402F4804202922A
:10120000029A29F003024FF6084A2244CFF6FF7AE9
:1012100052F80A3008F00C070F26BE4023EA060EEB
:10122000019B009E072B38BF1E4606FA07F747EAC8
:101230000E0342F80A3022684B6842EA0C07DE03CC
:1012400058BF22EA0C07276062689E0342EA0C0737
:1012500058BF22EA0C076760A268DE0242EA0C0768
:1012600058BF22EA0C07A76043F60C47C4F20107F7
:101270003A689B024FF0010642EA0C0358BF22EA8B
:101280000C033B6052E703B0BDE8F08F002A08BFB3
:10129000090481617047000040F21030C2F2000082
:1012A0000068704770B5B0B3044690F83D0028B9A7
:1012B000002084F83C00204600F058FA242084F8EE
:1012C0003D002068016821F001010160016841F4DE
:1012D00000410160016821F40041016000F0C2FB9F
:1012E00048F28041C0F21E0140F600126668884252
:1012F0004FF00001C0F23D0248F2A16C4FF0000334
:1013000038BF01219042C0F2010C38BF012366456D
:1013100038BF0B460BB1012070BD4DF68361C4F29E
:101320001B31A0FB01122168930C4D68664525F026
:101330003F0545EA92424A600A6A22F03F0C09D30F
:101340004FF496725A4344F6D353C1F26203A2FBA0
:1013500003239B095A1C42EA0C020A6248F2A0636A
:10136000CA69C0F201039E424CF6FF7322EA030CE5
:101370000AD801387200B0FBF2F001306FF31F3071
:10138000042898BF04202BE0A368A0F1010E9BB1B4
:1013900019207043BEFBF0F00422013062F31F30CD
:1013A000000512D09BB119207043BEFBF0F004225F
:1013B000013062F31F3011E006EB4600BEFBF0F097
:1013C00001306FF31F300005ECD1012008E006EB7F
:1013D0004600BEFBF0F001306FF31F3040F40040D8
:1013E00040EA0C00C8610868D4E9072320F0C00077
:1013F000104318430860886848F2FF3204F10C0675
:1014000090434CCE18431043A5698860C86820F00B
:10141000FF0030432843C860086840F001000860BE
:1014200000202021206484F83D10206384F83E00D1
:1014300070BD00002DE9F04383B01F4616460D46EF
:101440000446FFF729FF94F83D1020290FD102210F
:101450008146C0F21001204601221923CDF80090E8
:1014600001F0ACFB18B994F83C00012803D102202C
:1014700003B0BDE8F0830121226884F83C101368B2
:10148000DDE90B080A99DB0703D1136843F0010378
:101490001360136823F400631360222284F83D2054
:1014A000402284F83E200022226461626085608DC3
:1014B000294620850020CFF6FF70E06220463246A4
:1014C0003B46CDF80080CDF8049001F061FA18B1E8
:1014D000012003B0BDE8F083208D022806D001284A
:1014E00010D000BB00200290206812E02068016844
:1014F00021F480610160016841F400610160002114
:10150000029113E02068016821F4806101600021EC
:10151000029141690291816902910299016841F445
:101520000071016007E0002002902068416902918B
:10153000806902900298258D002D75D00427C0F295
:10154000010739E02068616A0268434622F480623C
:101550000260006900220870606A218D01306062BB
:10156000481E2085608D3946013860852046CDF8BB
:10157000009001F023FB0028AAD12068616A02686C
:1015800042F40072026000690870606A411C616286
:10159000218D226801392185618D013961851169AB
:1015A0004170606A218D01306062481E2085608D27
:1015B00001386085258DBDB32046032D0DD8012D42
:1015C00026D141464A4601F07FFB00287FF480AFD8
:1015D0002068616A00690870E3E741464A4601F005
:1015E00073FB00287FF474AF2068616A006908709B
:1015F000606A228D0130013A606222852168628D25
:10160000013A62854A695207D4D509690170C8E771
:10161000394600224346CDF8009001F0CFFA022D62
:10162000A9D000288ED053E7202084F83D00002068
:1016300084F83E0084F83C0003B0BDE8F08300006D
:101640002DE9F04383B0994616460F460446FFF74E
:1016500023FE94F83D1020290ED102210546C0F248
:101660001001204601221923009501F0A7FA18B9AC
:1016700094F83C00012803D1022003B0BDE8F083B8
:101680000121226884F83C101368DDE90B080A99EF
:10169000DB0703D1136843F001031360136823F4DD
:1016A00000631360212284F83D20402284F83E200C
:1016B0000022226461626085608D394620850020A9
:1016C000CFF6FF70E062204632464B46CDF80080F0
:1016D000019501F0E3F930B3012003B0BDE8F083D8
:1016E000204641462A4601F01FFB28BB606A21685C
:1016F000034613F8012B0A61228D6362571E27856A
:10170000638D3F04A3F1010363854B6918BF13F098
:10171000040308D0437802300B616062901E20857C
:10172000608D01386085208D0028D9D12046414642
:101730002A4601F013FA40B1206C0428CCD120686D
:10174000016841F400710160C6E72068016841F456
:1017500000710160202084F83D00002084F83E00E4
:1017600084F83C0003B0BDE8F0830000B0B586B05B
:1017700000240594CDE9034445F600010068C4F255
:10178000000188420294019401D006B0B0BD43F636
:1017900030050094C4F20205286840F00200286079
:1017A000286800F00200009000984FF4406001901B
:1017B0001220029001200390032004900420059041
:1017C00001F5D63001A9FFF797FC0094286940F491
:1017D00080002861286900F480000090009806B01D
:1017E000B0BD000040F2100040F21031C2F2000023
:1017F000C2F2000100780A681044086070470000D7
:1018000080B543F60040C4F20200016841F4007163
:101810000160016841F480610160016841F48071F8
:101820000160032000F064F8002000F005F800F0EB
:101830002BF8002080BD0000B0B540F21002C2F2CB
:10184000000240F204011278C2F200014FF47A73F0
:101850000968B3FBF2F20446B1FBF2F1084600F06E
:10186000F5FA0F2C4FF001050CD858B94FF0FF30A6
:1018700021460022002500F02BF840F21400C2F2AD
:10188000000004602846B0BD80B582B0002043F659
:1018900040010190C4F202014A6842F480424A6069
:1018A0004A6802F480420192019A0090086840F070
:1018B00080500860086800F0805000900098052073
:1018C00000F016F802B080BD80B502F09BFC80BD30
:1018D00070B514460D46064602F0A4FC2946224681
:1018E00001F00CFE0146304602F0A4FC70BD000081
:1018F00080B502F0B1FC80BD2DE9F041002800F078
:101900008B8043F60808C4F202080446D8F8F803AE
:101910000D4600F00F00884207D288F8F853D8F837
:10192000F80300F00F00A84276D12068810717D590
:10193000410705D5D8F8001041F4E051C8F800106F
:10194000010705D5D8F8001041F46041C8F800102F
:10195000D8F80010A26821F0F0011143C8F8001077
:10196000C0073FD1D8F8F80300F00F00A84207D90C
:1019700088F8F853D8F8F80300F00F00A8424BD1CC
:101980002068410707D5D8F80010E26821F4E0513B
:101990001143C8F80010000708D5D8F800002169E5
:1019A00020F4604040EAC100C8F8000000F07EF872
:1019B000D8F8001044F68872C1F30311C0F6000293
:1019C000515C40F2040220FA01F140F21400C2F22C
:1019D00000000068C2F200021160FFF72DFF002036
:1019E000BDE8F0816068811E022907D258F8081C02
:1019F00089015CBF0120BDE8F08110E0012807D11A
:101A000058F8081C89035CBF0120BDE8F08106E09E
:101A100058F8081C890702D40120BDE8F081D8F8E5
:101A2000001021F003010843C8F80000FFF734FC60
:101A3000064641F2883700BFD8F80000616800F020
:101A40000C00B0EB810F8DD0FFF726FC801BB84255
:101A5000F2D90320BDE8F08140F20400C2F2000098
:101A60000068704780B5FFF7F7FF43F60801C4F23E
:101A70000201096844F69872C1F38221C0F600029F
:101A8000515CC84080BD000080B5FFF7E5FF43F61C
:101A90000801C4F20201096844F69872C1F34231A8
:101AA000C0F60002515CC84080BD000010B543F68E
:101AB0000404C4F20204606800F00C0142F2004029
:101AC0000829C0F2F40007D0042918BF10BD41F264
:101AD0000020C0F27A0010BD216801F03F022168A9
:101AE00023684902C3F3881105D4A1FB0001002338
:101AF000FEF766FB06E041F20020C0F27A004843A0
:101B0000B0FBF2F021680222C1F3014102EB410176
:101B1000B0FBF1F010BD00002DE9F04182B00028CB
:101B200000F097800446007843F60006C007C4F230
:101B3000020641D0B06800F00C00042805D13068DE
:101B4000800339D56068B8BB83E0B06800F00C0052
:101B5000082802D170684002F1D46568B5F5803F6D
:101B600006D03068B5F5A02F06D140F48020306053
:101B7000306840F4803005E020F480303060306818
:101B800020F480203060FFF787FB002D054610D041
:101B90003068800310D4FFF77FFB401B6428F7D91F
:101BA0001AE100BFFFF778FB401B64284FF00300E9
:101BB0004CD830688003F5D4207880071AD5B068F7
:101BC00010F00C0F09D0B06800F00C00082840F0AD
:101BD00084807068400200F180803068800702D500
:101BE000E068012835D13068216920F0F80040EA2A
:101BF000C1003060207800072FD42078400742D4FD
:101C0000A56915B3B06800F00C00082840F0988072
:101C1000012D1ED07068E16900F480028A4218D15B
:101C2000216A00F03F028A4213D147F6C071626A0E
:101C3000014091420DD1A16A00F440328A4208D19C
:101C4000E16A00F07060884203D1002002B0BDE874
:101C5000F081012002B0BDE8F0816069002840F207
:101C60000000C4F247205AD00121C0F8801EFFF7BF
:101C700013FB0546706F8007BFD4FFF70DFB401BB9
:101C80000228F7D9A8E0306C4FF00008C0000CD44F
:101C9000CDF80480306C4FF0010840F08050306483
:101CA000306C00F080500190019847F20007C4F2B8
:101CB00000073868C00525D4386840F48070386063
:101CC000FFF7EAFA054600BF3868C0051AD4FFF7E7
:101CD000E3FA401B0228F7D97EE0E068002851D0E3
:101CE0000020C4F2472001210160FFF7D5FA054624
:101CF000306880073FF577AFFFF7CEFA401B022828
:101D0000F6D969E0A568012D05D0306F052D4DD1BC
:101D100040F004003067306F40F001004CE00021DB
:101D2000C0F8801EFFF7B8FA054600BF706F800745
:101D30007FF563AFFFF7B0FA401B0228F6D94BE0FE
:101D40000027C4F2472700203866FFF7A5FA022DC6
:101D500005460BD13068800156D5FFF79DFA401B30
:101D600002284FF00300F5D970E700BF306880010A
:101D70007FF56BAFFFF790FA401B02284FF003008E
:101D8000F4D963E70020C4F2472000210160FFF787
:101D900083FA0546306880077FF52CAFFFF77CFAA1
:101DA000401B02284FF00300F4D94FE720F0010058
:101DB0003067306F20F004003067FFF76DFA002DB8
:101DC000054641F2883713D0306F800713D4FFF7F0
:101DD00063FA401BB842F7D9032002B0BDE8F08196
:101DE000FFF75AFA401BB8424FF003003FF62EAF00
:101DF000306F8007F4D4B8F1000F3FF401AF306CBE
:101E000020F080503064FBE604F11C052FCD084320
:101E100040EA8210D9034FF6FF729143A1F5803159
:101E200040EA05600843706001203866FFF734FA25
:101E3000044600BF306880013FF507AFFFF72CFA7A
:101E4000001B02284FF00300F4D9FFE680B501F033
:101E500033FE80BD7047000070470000B0B590F8B9
:101E60003C20012A04BF0220B0BD01F108053CCD91
:101E7000D1E900CE23F47C5322F470521A432EF49D
:101E8000F0431A432CF4E0431A4324F4C0431A43AA
:101E90002A43C96922F4804203681143596400212E
:101EA00080F83C100846B0BD10B590F83C20012ADF
:101EB0004FF0020252D0012380F83C3080F83D20E0
:101EC0000268D2F804E0D2F808C00C682EF0700363
:101ED000234341F2FF74C4F20004A24253600DDCBC
:101EE00040F2FF73C4F200039A4215DCB2F1804F56
:101EF00029D040F20043C4F2000322E040F2FF3355
:101F0000C4F201039A4212DC41F60003C4F200035A
:101F10009A4218D0002312E040F60003C4F20003F6
:101F20009A4210D040F60043C4F2000309E044F2A4
:101F30000003C4F201039A4205D040F20043C4F208
:101F400001039A4204D149682CF08003194391603F
:101F50000121002280F83D1080F83C20104610BD81
:101F6000002804BF0120704710B5044690F83D00DA
:101F700028B9002084F83C00204600F00DF802202B
:101F800084F83D002068211D01F016FE012084F830
:101F90003D00002010BD000080B584B00068B0F1A5
:101FA000804F1BD040F60041C4F20001884226D089
:101FB0000021C4F20101884238D10020039043F689
:101FC0004000C4F20200416841F0010141604068F4
:101FD00000F001000390039804B080BD002002903F
:101FE00043F64000C4F20200016841F001010160C3
:101FF000006800F001000290029804B080BD00204B
:10200000019043F64000C4F202000168002241F052
:10201000080101600068002100F0080001900198AB
:102020003220FFF755FC3220FFF74EFC04B080BD94
:102030000068C16841F00101C160816801F00701D9
:10204000062903D0016841F00101016000207047BA
:1020500010B5044690F83C0001284FF0020008BF7C
:1020600010BD012284F83C2084F83D0020684FF622
:10207000777382689A4382600A683F2A14DD5F2A78
:1020800018DD602A28D0B2F5005F2DD0702A40D12B
:10209000D1E9012CCB68614601F020FE20688168FF
:1020A00041F07701816034E01F2A0FDC92B1102AE1
:1020B00010D02EE0402A23D0502A2AD14B68CA687B
:1020C000194601F0E5FE2068502120E0202A01D0C9
:1020D000302A1ED111461AE04B68CA68194601F031
:1020E000E9FE2068602112E0D1E9012CCB6861464D
:1020F00001F0F4FD2068816841F48041816008E0CE
:102100004B68CA68194601F0C3FE2068402101F0FF
:10211000F1FD012084F83D00002084F83C0010BD52
:102120007047000010B5044600680169890744BF84
:10213000C1685FEA817138D420680169490744BFEA
:10214000C1685FEA41713CD420680169090744BF56
:10215000C1685FEA017141D420680169C90644BFC2
:10216000C1685FEAC16145D420680169C9071CBF25
:10217000C1685FEAC1714AD120680169090644BF9C
:10218000C1685FEA016149D420680169490644BF1A
:10219000C1685FEA416148D420680169890644BF8B
:1021A000C1685FEA816147D410BD6FF0020101612F
:1021B000012121778069800745D02046FFF7B0FFD5
:1021C00047E06FF00401016102212177806910F47A
:1021D000407F41D02046FFF7A3FF43E06FF00801A6
:1021E000016104212177C06980073ED02046FFF7B6
:1021F00097FF40E06FF01001016108212177C0696D
:1022000010F4407F3AD02046FFF78AFF3CE06FF0A1
:1022100001010161204600F011F9ADE76FF0800186
:1022200001612046FFF716FEAEE76FF04001016145
:10223000204600F005F9AFE76FF02001016120466C
:10224000FFF70AFE10BD204600F086F8204600F099
:10225000F3F8002020776FE7204600F07DF8204655
:1022600000F0EAF8002020776EE7204600F074F8CE
:10227000204600F0E1F8002020776DE7204600F0CE
:102280006BF8204600F0D8F8002020776CE70000BB
:1022900070B586B000250595CDE903550068029517
:1022A000B0F1804F019520D00021C4F20101884295
:1022B0004FD1002043F630010090C4F202010A68B9
:1022C00042F010020A60096801F0100100910099C3
:1022D0004FF4D44101910221CDE902100490002075
:1022E000C4F2020000F580502EE043F63000009565
:1022F000C4F202000168002441F00101016001689C
:10230000022601F001010091009900950168C4F2D4
:10231000020441F002010160006801A900F002001E
:10232000009000984FF4004001900120CDE9026533
:10233000059020460495FEF7DFFE0820CDE9010652
:1023400004F58060CDE903550121059101A9FEF74F
:10235000D3FE06B070BD00007047000070B50446A3
:1023600090F83C0001284FF0020008BF70BD0D46F8
:102370004FEAB2010126032984F83C6084F83D004D
:1023800036D8DFE801F0020A12222068294601F05F
:10239000B9FC206850F8181F0EE02068294601F0AB
:1023A000E3FC206850F8181F16E02068294601F069
:1023B00011FD206850F81C1F41F008010160016800
:1023C00021F00401016029690FE02068294601F02D
:1023D00037FD206850F81C1F41F40061016001685E
:1023E00021F48061016029690902026811430160DA
:1023F000002084F83D6084F83C0070BD002804BFD4
:102400000120704710B5044690F83D0028B900201F
:1024100084F83C00204600F00DF8022084F83D00CE
:102420002068211D01F0C8FB012084F83D00002038
:1024300010BD0000704700007047000070470000AA
:10244000704700007047000070B5026804461068CD
:10245000D168536900F02F02202A01F0200204D134
:102460001AB1204601F062FD70BD5FEA007C07D022
:1024700003F0010E11F4907F8EF001030ED16BB1C9
:102480000840010606D4400658BF70BD204601F042
:1024900041FD70BD204601F03DFE70BDC50718BF6F
:1024A00011F4807503D0E56B45F00105E56300F09C
:1024B0000406012585EA96061E4303D1E66B46F025
:1024C0000206E66300F0020685EA56052B4303D1B7
:1024D000E36B43F00403E36352EA0E0218BF0122E8
:1024E000BCF1000F04D51AB1E26B42F00802E263BE
:1024F000E26B002ACDD00840800602D5204601F0CC
:1025000015FD20684069E16B00F0400001F0080112
:1025100040181DD0204601F0EFFC206841694906B3
:1025200012D5416921F040014161606B60B143F611
:10253000E961C0F600010165FEF7B8FD0028A8D0EA
:10254000606B016D884770BD2046FFF77BFF70BD53
:102550002046FFF777FF0020E06370BD002804BF2E
:102560000120704710B5044690F8390028B90020C2
:1025700084F83800204600F021F8242084F839003F
:102580002068C16821F40051C160204601F00CFDB3
:102590002068016921F490410161416921F02A011B
:1025A0004161C16841F40051C16000202021E06315
:1025B00084F8391084F83A1010BD000010B586B0C8
:1025C000006844F6FF31C4F2000188424FF0000178
:1025D0000591CDE90311CDE9011129DC44F2004157
:1025E000C4F20001884255D044F60001C4F2000153
:1025F000884240F0A680002143F630000091C4F2EA
:1026000002000269272442F480220261026902F476
:1026100080220092009A0091026842F00802026053
:10262000006800F00800009000984FF440704CE003
:1026300041F20001C4F2010188424DD044F600414C
:10264000C4F2000188427CD1002043F630010090A2
:10265000C4F202010A69342442F400220A610A69C0
:1026600002F400220092009A00900868082240F0CC
:10267000040008600868012100F004000090009840
:102680004FF44060019040F60040C4F20200A0F513
:10269000806045E0002143F630000091C4F2020062
:1026A0000269262442F400320261026902F4003217
:1026B0000092009A0091026842F0080202600068ED
:1026C00000F00800009000986020019040F6004063
:1026D0000722C4F2020023E0002143F630000091FB
:1026E000C4F202004269252442F0100242614269AC
:1026F00002F010020092009A0091026842F001027A
:1027000002600068072200F00100009000984FF47A
:10271000C060019040F60040C4F20200A0F54060A5
:102720000223CDE902310321CDE9041201A9FEF70C
:10273000E3FC204600210022FFF7CAF82046FFF7FD
:10274000C3F806B010BD0000034690F83A002028F8
:102750000AD100294FF0010018BF002A00D17047AC
:1027600093F83800012801D10220704799620020B7
:1027700022219A85DA85D86383F83A10196883F89C
:102780003800CA6842F48072CA604A6942F00102A5
:102790004A61CA6842F02002CA607047B0B582B090
:1027A000044600200190206844F200450168C4F20C
:1027B0000005019141680191019905F54C4188425C
:1027C00005D140F23100C2F20000FEF7DFF92068C7
:1027D000A8421AD140F2A820C2F2000040F2320111
:1027E0000278C2F200010978531C037040F2A92359
:1027F000C2F200036D29995407D140F20D31C2F2A3
:10280000000101220A7000210170206805F5806135
:10281000884205D140F23300C2F2000000F088FE89
:10282000206805F50061884205D140F23400C2F20B
:102830000000FEF7ABF940F27C1040F23101C2F229
:102840000000C2F200010122FFF77EFF40F2BC103F
:1028500040F23201C2F20000C2F200010122FFF791
:1028600073FF40F2FC1040F23301C2F20000C2F2EA
:1028700000010122FFF768FF40F23C2040F23401E2
:10288000C2F20000C2F200010122FFF75DFF02B0B8
:10289000B0BD00002DE9F041044690F83900202831
:1028A0000DD10E4600294FF0010052D01746002AE4
:1028B00008BFBDE8F08194F83800012802D1022059
:1028C000BDE8F081012084F838004FF00008212095
:1028D0001D46C4F83C8084F83900FEF7DDFCA7846F
:1028E000E78484F83880E18C804661B92046402135
:1028F00042462B4601F03AFC38B30320BDE8F08194
:10290000E08C0028F2D0E08C80210138E084A768B8
:10291000204642462B4601F029FCB7F5805F0DD1D9
:102920000028EAD13088216922686FF35F200029EE
:10293000506014BF01360236E2E700BF0028DCD148
:1029400016F8010B21684860DAE7202084F8390086
:102950000020BDE8F081000070470000FEE70000A5
:102960000268516949054FF000010FD56FF480638B
:1029700053612022016380F83D2080F83E10026CF4
:1029800042F00402026480F83C10012108467047BE
:102990002DE9F04782B0044600680E460168DDF874
:1029A00028A041F4806101600168DDF82C9041F4B9
:1029B00080711D461746016020464FF0011100222C
:1029C0005346CDF8009000F0F9F850B12068006847
:1029D000C00544BF4FF400702064032002B0BDE87E
:1029E000F08740F202082068C0F2010806F0FE06F7
:1029F00006612046414652464B4600F01FF948BB4F
:102A00000020019020684A46416901918069514641
:102A100001900198204600F087F998B9012D08D05F
:102A20002068390A0161204651464A4600F07CF987
:102A300040B92068F9B20161204651464A4600F08B
:102A400073F958B1206C042804D12068016841F45E
:102A500000710160012002B0BDE8F087206800220B
:102A60000168534641F48071016020464FF0011126
:102A7000CDF8009000F0A2F80028A7D1206846F019
:102A8000010101612046414652464B4600F0D6F80E
:102A9000002818BF012002B0BDE8F0872DE9F043FF
:102AA00083B0044600680D4601680A9F0B9E41F4FE
:102AB000807199469046016020464FF00111002236
:102AC0003B46009600F07AF850B120680068C005D7
:102AD00044BF4FF400702064032003B0BDE8F083CE
:102AE000206805F0FE0101610221C0F201012046CB
:102AF0003A46334600F0A2F818B1012003B0BDE811
:102B0000F08300200290206832464169029180697A
:102B1000394602900298204600F006F940B1206C38
:102B20000428EAD12068016841F400710160E4E7FB
:102B3000B9F1010F0AD020684FEA1821016120463F
:102B40003946324600F0F0F80028E8D120685FFAF4
:102B500088F10161002003B0BDE8F083F0B581B0D9
:102B6000044600684069400724D415460E464F1CB1
:102B700004E000BF2068406940071BD42046FFF7EF
:102B8000EFFEA0B9002FF5D0FEF786FB16B1401B73
:102B9000B042EFD900202021206384F83D1084F852
:102BA0003E00216C41F02001216484F83C000120AA
:102BB00001B0F0BD002001B0F0BD00002DE9F047EC
:102BC000DDF820809A461646814601F47F078CB2D4
:102BD0005D1C00BFD9F800001821B7F5803F08BF81
:102BE00014214058224608BF22461040801AB0FAED
:102BF00080F04009B0421DD1002DEBD0FEF74CFB18
:102C0000BAF1000F03D0A0EB08005045E2D9002034
:102C10002021C9F8300089F83D1089F83E00D9F824
:102C2000401041F02001C9F8401089F83C00012013
:102C3000BDE8F0870020BDE8F08700002DE9F043F3
:102C400081B098461646814601F47F078DB2541C28
:102C5000D9F800001821B7F5803F08BF142141586A
:102C60002A4608BF2A46114091420ED041694905C3
:102C70000FD4002CECD0FEF70FFB4FF0200186B1F3
:102C8000A0EB0800B042E3D90BE0002001B0BDE8A2
:102C9000F083016841F4007101606FF4806141616B
:102CA000042100202022C9F8300089F83D2089F84D
:102CB0003E00D9F840201143C9F8401089F83C0083
:102CC000012001B0BDE8F08370B515460E460446FC
:102CD00020684169490613D44169C90612D4FEF738
:102CE000DBFA16B1401BB042F2D90020202120634C
:102CF00084F83D1084F83E00206C40F020000CE089
:102D0000002070BD6FF01001416100202021206380
:102D100084F83D1084F83E00206C2064002084F884
:102D20003C00012070BD0000F0B581B00446006891
:102D30004069000624D415460E464F1C04E000BF2F
:102D40002068406900061BD42046FFF709FEA0B9A1
:102D5000002FF5D0FEF7A0FA16B1401BB042EFD914
:102D600000202021206384F83D1084F83E00216C6F
:102D700041F02001216484F83C00012001B0F0BD45
:102D8000002001B0F0BD000080B541F20000C4F2A7
:102D9000020080210022FEF779FA80BD80B541F261
:102DA0000000C4F2020080210122FEF76FFA80BD0C
:102DB00040F28C220146C2F20002002011607047EE
:102DC00080B500EE100AB8EE400A10EE100AFDF7CA
:102DD00005FC9FED090B53EC102BFDF70CFB9FED51
:102DE000080B53EC102BFDF75FFAFDF70AFC00EE21
:102DF000100A80BD00BF00BF7B14AE47E17A943F4C
:102E000000000060661271C0B0B584B00C4640F29C
:102E10008C21C2F20001096802460A2002230DF14A
:102E20000E05CDE9005302900846B4210123012587
:102E3000FEF700FB18B9BDF80E00002520802846DB
:102E400004B0B0BD70B584B0024640F28C20C2F22E
:102E500000000E460124006802210DF10E0364F308
:102E60005F120A25CDE90031B42101230295FEF756
:102E7000E1FA18B9BDF80E0000243080204604B0F5
:102E800070BD000010B582B004460DF106010720A8
:102E9000FFF7BAFF10B1012002B010BDBDF8060067
:102EA000FFF78EFF84ED000A002002B010BD000085
:102EB00070B52DED028B82B010EE100AB0EE408A94
:102EC000FDF78CFBB7EE000AB4EE408AF1EE10FA83
:102ED0004FF001064DDC9FED2A0B044653EC102BFE
:102EE0000D46FDF715FB002843D10DF10601042026
:102EF000FFF7A8FF01A90F20FFF7A4FF9FED220B0A
:102F0000204653EC102B2946FDF775FA41EC100BC7
:102F100001F012FB51EC100BFDF741FBBDF8065020
:102F2000854201D1002624E00446BDF80460042057
:102F3000214600F05FF808B101261AE000EE105AB1
:102F400001EE104AB8EE400AB8EE411A80EE010ACE
:102F500001EE106AB8EE411A0F2020EE010ABDEE14
:102F6000C00A10EE101A00F045F80646002818BFF7
:102F70000126304602B0BDEC028B70BD00BF00BF21
:102F80009A9999999999B93F00000000E0FFEF40A4
:102F900070B584B0044601200D4660F35F14002034
:102FA000B42101F069F9214601F066F9E9B201F0B6
:102FB00063F92E0A314601F05FF940F28C21C2F22A
:102FC000000109688DF80F0003200DF10D028DF846
:102FD0000E600A26CDE900200846B42122460123CE
:102FE0008DF80D500296FEF72BFB002818BF01202C
:102FF00004B070BDB0B582B00C4600210546FFF7A5
:10300000C7FF38B90A20FEF763F828462146FFF7C4
:10301000BFFF10B1012002B0B0BD0A20FEF758F882
:103020000DF106012846FFF70DFFBDF80600001B55
:1030300018BF012002B0B0BD70B586B0002543F6C0
:1030400030000595CDE90355CDE901550095C4F251
:103050000200016841F2000441F0100101600168C2
:10306000C4F2020401F0100100910099009501687A
:10307000002241F0800101600168C02601F080015A
:10308000009100990095016841F00201016001681A
:1030900001F00201009100990095016841F00801DA
:1030A0000160016801F00801009100990095016834
:1030B00041F001010160016801F0010100910099F6
:1030C0000095016841F0040101600068C02100F032
:1030D0000400009000982046FEF7D8F801960126DB
:1030E000CDE90265049501AD20462946FEF704F8B6
:1030F0004FF4407001901220CDE9020603200490A5
:1031000004200590A4F540602946FDF7F5FF06B0C0
:1031100070BD000080B540F2680045F60001C2F2C3
:103120000000C4F2000148F2A06200234FF4804C7A
:10313000C0F2010280E80E00C0E9033CC0E905339B
:10314000C0E90733FEF7AEF8002818BFFDF766FFA9
:1031500080BD000010B596B040F2BC0000220021F6
:10316000C2F20000C4F2010240F2473363244FF080
:10317000800C1591CDE91311CDE91111CDE90F1195
:10318000CDE90D11CDE90B11CDE90911CDE90711FB
:10319000CDE90511CDE90311CDE90111C0E9002305
:1031A000C0E90214C0E90411C0F818C0FEF7D8FE47
:1031B000002818BFFDF732FF4FF48050129040F204
:1031C000BC00C2F2000012A9FEF742FF002818BF9F
:1031D000FDF724FF40F2BC00C2F20000FFF70EF939
:1031E000002818BFFDF71AFF40F2BC000024C2F20D
:1031F000000010A9CDE91044FEF756FE002818BFC4
:10320000FDF70CFF6020CDE9090440F2BC00C2F2DA
:10321000000009A90022CDE90B44CDE90D440F942B
:10322000FFF79CF8002818BFFDF7F8FE40F2BC003D
:10323000C2F2000009A90422FFF790F8002818BF85
:10324000FDF7ECFE40F2BC00C2F2000009A9082222
:10325000FFF784F8002818BFFDF7E0FE40F2BC003D
:10326000C2F2000009A90C22FFF778F8002818BF65
:10327000FDF7D4FE00200590CDE90300CDE9010063
:103280004FF40051089040F2BC000691C2F20000D9
:1032900001A9FEF7E3FD002818BFFDF7BFFE40F2CD
:1032A000BC00C2F20000FEF7F3FF16B010BD000034
:1032B00010B58EB040F2FC000021C2F200004FF0C9
:1032C000804240F2473340F2CF740D91CDE90B11AB
:1032D000CDE90911CDE90711CDE90511CDE90311BA
:1032E000CDE90111C0E90023C0E902140161802188
:1032F0008161FEF735FE002818BFFDF78FFE4FF401
:1033000080500A9040F2FC00C2F200000AA9FEF7C9
:103310009FFE002818BFFDF781FE40F2FC00C2F2BC
:103320000000FFF76BF8002818BFFDF777FE40F2AA
:10333000FC000024C2F2000008A9CDE90844FEF711
:10334000B3FD002818BFFDF769FE6020CDE9010438
:1033500040F2FC00C2F2000001A90022039405948F
:10336000FEF7FCFF002818BFFDF758FE40F2FC00F6
:10337000C2F2000001A90422FEF7F0FF002818BFE6
:10338000FDF74CFE40F2FC00C2F20000FEF780FFA9
:103390000EB010BD80B586B040F23C1040F6004241
:1033A0000021C2F20000C4F2000242F2CF0341F257
:1033B000873CCDE90411CDE90211CDE90011C0E946
:1033C0000023C0E9021C016180218161FEF7C8FD74
:1033D000002818BFFDF722FE4FF48050029040F203
:1033E0003C10C2F2000002A9FEF732FE002818BF0E
:1033F000FDF714FE0020CDE9000040F23C10C2F2BF
:1034000000006946FEF750FD002818BFFDF706FED4
:1034100006B080BD80B540F23C2044F60041C2F2C7
:103420000000C4F2000100234FF00C0C4FF41652C0
:1034300080E80E00C0E90333C0E905C3C361FFF7AC
:103440008DF8002818BFFDF7E9FD80BD80B540F27A
:103450007C1041F20001C2F20000C4F2010100231D
:103460004FF00C0C4FF4E13280E80E00C0E903335A
:10347000C0E905C3C361FFF771F8002818BFFDF765
:10348000CDFD80BD80B540F2BC1044F20041C2F2D7
:103490000000C4F2000100234FF00C0C4FF4165250
:1034A00080E80E00C0E90333C0E905C3C361FFF73C
:1034B00055F8002818BFFDF7B1FD80BD80B540F27A
:1034C000FC1044F60001C2F20000C4F20001002327
:1034D0004FF00C0C4FF4165280E80E00C0E9033395
:1034E000C0E905C3C361FFF739F8002818BFFDF72D
:1034F00095FD80BDFEE700007047000000F007006A
:1035000080F00703042B28BF04234FF0FF3C03384F
:103510000CFA03F338BF0020994381400CFA00F005
:1035200022EA00000843704770470000704700001F
:10353000F0B581B040F20E35C2F2000501782A786C
:1035400040F29820C2F2000081540378511C572B9E
:10355000297040F06B8050FA81F212F8012C582A41
:1035600040F06680427840F25E07463A40F25606E6
:103570000E2AC2F20007C2F2000652D8C9B2DFE832
:1035800002F0085050505050161D5050505050509E
:103590003700042945D3CC1E811C40F24E00C2F2F4
:1035A00000002246FCF73DFE013CFDD139E040F22F
:1035B0007C20C2F200000121016032E004290BD31B
:1035C000CC1E811C40F25600C2F200002246FCF7DD
:1035D00028FE00BF013CFDD140F25600C2F20000BF
:1035E000FCF755FE40F29021C2F20001086018E09D
:1035F00004290BD3CC1E811C40F25E00C2F20000F5
:103600002246FCF70EFE00BF013CFDD140F25E00F9
:10361000C2F20000FCF73BFE40F23001C2F20001B2
:10362000087000207860386070603060002028707A
:1036300001B0F0BD2DE9F04F95B040F2FC14C2F29C
:1036400000041091216804F1300C1491616804F1B8
:10365000100E1391A1689EE8E04F1291E16811915C
:103660009CE80E10099208914CA10A93CDF82CC049
:10367000CDE90C101098DDE911320E90DDE9131040
:103680008DE8E00FCDF81CE000F0FEFE206804F1AC
:10369000140E14906068D4E903371390A0689EE874
:1036A00040581290D4E90C50D4E90E1204F1240AC7
:1036B000CDE9085002A89AE80007CDE90A12CDE941
:1036C000007680E8005844F6A070C0F60000CDE90E
:1036D00005890C901498DDE91221FF27CDF81CA074
:1036E0000D9700F0D1FE206804F134031490D4E962
:1036F000019004F1180E1390E0680ECB1290D4E9FB
:1037000004759EE84050D4E909ABD4E90B800991D7
:1037100002A90A920B93CDE9007581E84050CDE9EA
:1037200005ABCDE9078044F6A070C0F600000C9010
:103730001498DDE912324946FF270D9700F0A4FEE8
:10374000206804F108071490606804F1140E1390C7
:10375000D4E90C5004F1240AD4E90E14CDE9085040
:1037600044F6A070C0F600009EE84058CDE90A1467
:103770000C90FF200D9002A88CCF9AE80007CDE9AD
:10378000007680E80058DDE91310CDE90589CDF811
:103790001CA000F079FE15B0BDE8F08F7425642EF2
:1037A0007478743D22257322000000002DE9F04F4B
:1037B00095B0149010EE100AFCF710FF40F2FC15C3
:1037C000C2F2000541EC100BD5E9008005F1300391
:1037D0001390A86805F1180E1290E868D5E9046402
:1037E00011900FCB9EE88050089051A00C90149837
:1037F00005F1240B9BE8000E0D9002A809910A9296
:103800000B93CDE9006480E8805005A81399DDE9A9
:10381000113280E8000E40468DED0E0B00F034FEB4
:10382000286805F1140E14906868D5E903371390E1
:10383000A8689EE840581290D5E90C40D5E90E12D0
:1038400005F1240ACDE9084002A89AE80007CDE96D
:103850000A12CDE9007680E8005844F6A070C0F660
:103860000000CDE905890C901498DDE91221FF27AD
:10387000CDF81CA00D9700F007FE286805F1340371
:103880001490D5E9019005F1180E1390E8680ECB5D
:103890001290D5E904749EE84050D5E909ABD5E90A
:1038A0000B80099102A90A920B93CDE9007481E87B
:1038B0004050CDE905ABCDE9078044F6A070C0F6D5
:1038C00000000C901498DDE912324946FF270D974D
:1038D00000F0DAFD286805F108071490686805F122
:1038E000140E1390D5E90C4005F1240AD5E90E1504
:1038F000CDE9084044F6A070C0F600009EE84058AC
:10390000CDE90A150C90FF200D9002A88CCF9AE803
:103910000007CDE9007680E80058DDE91310CDE915
:103920000589CDF81CA000F0AFFD15B0BDE8F08F03
:103930007425642E7478743D22252E316622000091
:103940002DE9F04F95B040F2FC14C2F20004109142
:10395000216804F1300C1491616804F1100E139188
:10396000A1689EE8E04F1291E16811919CE80E1069
:10397000099208914CA10A93CDF82CC0CDE90C1006
:103980001098DDE911320E90DDE913108DE8E00F9B
:10399000CDF81CE000F078FD206804F1140E1490BE
:1039A0006068D4E903371390A0689EE840581290ED
:1039B000D4E90C50D4E90E1204F1240ACDE90850E0
:1039C00002A89AE80007CDE90A12CDE9007680E85E
:1039D000005844F6A070C0F60000CDE905890C90AF
:1039E0001498DDE91221FF27CDF81CA00D9700F0F7
:1039F0004BFD206804F134031490D4E9019004F1E4
:103A0000180E1390E0680ECB1290D4E904759EE86E
:103A10004050D4E909ABD4E90B80099102A90A927C
:103A20000B93CDE9007581E84050CDE905ABCDE9B8
:103A3000078044F6A070C0F600000C901498DDE9F1
:103A400012324946FF270D9700F01EFD206804F151
:103A500008071490606804F1140E1390D4E90C5018
:103A600004F1240AD4E90E14CDE9085044F6A070FC
:103A7000C0F600009EE84058CDE90A140C90FF20E3
:103A80000D9002A88CCF9AE80007CDE9007680E877
:103A90000058DDE91310CDE90589CDF81CA000F030
:103AA000F3FC15B0BDE8F08F7425642E7478743D76
:103AB0002225642200000000B0B501380024B4EBD8
:103AC000106F1CBF0120B0BD4EF21005CEF20005F4
:103AD00068604FF0FF300F2100F0ACFB0720AC60B6
:103AE00028602046B0BD000080B5FDF77BFE80BD9C
:103AF00070B592B006AC20463021FCF7ABFB002538
:103B000043F640000595CDE90355CDE901550095F3
:103B1000C4F202000168022641F080510160006891
:103B200000F080500090009847F200000095C4F229
:103B30000000016841F480410160006800F48040A9
:103B400000900098012006904FF4803007904FF4C9
:103B500080000D9004200E90A8200C96CDE90F0651
:103B6000072011902046FDF7D7FF0F20CDE9010671
:103B70004FF4A05004904FF48050059001A8052107
:103B80000395FDF7B9FE12B070BD00004EF68850E7
:103B9000CEF20000016841F4700101604FF0006155
:103BA00040F8801C7047000080B540F23C10C2F223
:103BB0000000FEF7B7FA80BD10B540F6FF3E03687F
:103BC000C4F2000E40F2004C7045C4F2010C0FDC50
:103BD000B0F1804F19D040F20042C4F2000290428E
:103BE00013D040F60002C4F2000290420DD010E063
:103BF00040F60042C4F20002904206D0604504D074
:103C00000022C4F20102904203D14A6823F07003FB
:103C1000134341F6FF72C4F2000290420DDC70457E
:103C20001FDCB0F1804F41D040F20042C4F20002EC
:103C300090423BD040F6000221E043F6FF72C4F20E
:103C40000102904220DC42F20002C4F200029042E3
:103C50002CD00022C4F20102904227D0604525D02A
:103C600028E040F60042C4F2000290421ED041F625
:103C70000002C4F20002904218D041F60042C4F2A1
:103C80000002904212D015E044F20002C4F2010298
:103C900090420BD044F60002C4F20102904205D0DB
:103CA00044F20042C4F20102904203D1CA6823F4F4
:103CB0004073134323F080024B69D1F800E08C6815
:103CC0001A430260C46240F48062C0F828E0624592
:103CD00004BF096901630121416110BDD0F808C02A
:103CE00011432CF47F4C41EA032141EA0C0181602D
:103CF00070470000826822F07002114341F0070112
:103D000081607047B0B5026A22F001020262026A65
:103D1000D0F804E083690C6823F073038D6843EAEC
:103D2000040C40F2004422F0020240F48063C4F22A
:103D30000104A34242EA050205D1CD6822F00C023B
:103D400025F004052A43A34206D1D1E905542EF4F7
:103D500040732B4343EA040EC0F804E0C0F818C0D7
:103D6000496841630262B0BD70B5026A22F0100278
:103D70000262026AD0F804E083690C6823F4E64327
:103D80008D6843EA042C40F2004422F0200240F403
:103D90008063C4F20104A34242EA051207D1CD6850
:103DA0006FF0400622F0C00206EA05152A43A3423E
:103DB00007D1D1E905652EF4406343EA860343EA5F
:103DC000850EC0F804E0C0F818C04968816302623B
:103DD00070BD000070B5026A22F480720262026A4D
:103DE000D0F804E0C3690C6823F073038D6843EADC
:103DF000040C40F2004422F4007240F48063C4F2E8
:103E00000104A34242EA052207D1CD6840F2FF46F1
:103E10002D0222F44062B5432A43A34207D1D1E9DF
:103E200005652EF4405343EA061343EA051EC0F825
:103E300004E0C0F81CC04968C163026270BD0000A4
:103E400010B5026A40F2004422F480520262D0F8B7
:103E500020C04268C369C4F2010423F4E64E40F472
:103E60008063A3420B688C684EEA032E2CF4005347
:103E700043EA043C04D14B6922F4804242EA8312B3
:103E80004260C0F81CE049680164C0F820C010BD61
:103E9000D0F820C0036A23F001030362836923F092
:103EA000F00343EA02122CF00A0319438261016213
:103EB00070470000036A23F0100303628369D0F89F
:103EC00020C023F4704343EA02322CF0A00343EAFB
:103ED000011182610162704780B540F23C20C2F25C
:103EE0000000FEF7B1FA80BD80B5806B0021C1856E
:103EF000C184FEF7A7FA80BD0168CA6822F49072F7
:103F0000CA604A6922F001024A61202180F83A1011
:103F10007047000080B50168CA6822F04002CA609C
:103F2000202180F83910FEF717FD80BD80B590F88C
:103F30003A10222937D18168B1F5805F09D1026832
:103F40000369816A526883B1836AD2B20A80591CBC
:103F500010E0016802694968002A826A18BF01F00E
:103F60007F01531C8362117005E0836A6FF35F2247
:103F70000A80991C8162C18D01390A04C18518BF6C
:103F800080BD0168CA6822F02002CA60CA6822F4B3
:103F90008072CA604A6922F001024A61202180F8D9
:103FA0003A10FEF7FBFB80BDB0B50546006805F191
:103FB00008030ECB0469194324F4405422430261E0
:103FC0006A69EB691143C26849F20C641943A24360
:103FD0001143C1604169AA6921F4407111434161F3
:103FE00041F20041B3F5004F40F48060C4F201019A
:103FF00024D1884246D1FDF747FD6B681921A0FB0B
:1040000001015A00DB0FFCF7DBF848F21F51C5F243
:10401000EB11A0FB01235A096FF0630302FB0300BD
:10402000322303EBC000A0FB01014FF4F87000EA5B
:10403000111000EB0210C1F3421167E0884244D135
:10404000FDF722FD6B681921A0FB01019A009B0F6F
:10405000FCF7B6F848F21F51C5F2EB11A0FB0123A3
:104060005A096FF0630302FB0300322303EB0010D5
:10407000A0FB0101F02000EA511000EB0210C1F397
:10408000431143E0FDF7EEFC6B681921A0FB010131
:104090005A00DB0FFCF794F848F21F51C5F2EB1100
:1040A000A0FB01235A096FF0630302FB03003223D4
:1040B00003EBC000A0FB01014FF4F87000EA1110FF
:1040C00000EB0210C1F3421120E0FDF7CBFC6B685E
:1040D0001921A0FB01019A009B0FFCF771F848F22F
:1040E0001F51C5F2EB11A0FB01235A096FF06303C6
:1040F00002FB0300322303EB0010A0FB0101F020C0
:1041000000EA511000EB0210C1F343112A68084382
:104110009060B0BD90F83910212926D18268016ADB
:10412000B2F5805F0DD10A880369D0F800C06FF343
:104130005F22002BCCF8042014BF01310231016250
:1041400004E04A1C0262097802685160C18C01399E
:104150000A04C18418BF70470068C16821F080015B
:10416000C160C16841F04001C16070472DE9F04174
:104170000446006800680840884202D10020BDE87B
:10418000F0811D460E4690465F1C04E020680068E2
:104190003040B042F2D0002FF8D02DB1FDF77CF8BE
:1041A000A0EB0800A842F1D92068C16821F4D071C1
:1041B000C160416921F001014161202084F839008A
:1041C00084F83A00002084F838000320BDE8F0812C
:1041D00080B540F27C10C2F20000FEF735F980BDD8
:1041E00080B540F2BC10C2F20000FEF72DF980BD90
:1041F00080B540F2FC10C2F20000FEF725F980BD48
:10420000FEE70000002848BF704700F01F010122B0
:1042100002FA01F14EF200124009CEF2000242F819
:10422000201070474EF60C50CEF200000068C0F32C
:10423000022070474EF6145300F00F02CEF2000336
:1042400009011A4400F16043B0F1FF3FC8BF03F514
:1042500064421170704700004EF60C51CEF200011E
:104260000A684FF6FF031A4060F30A2242F08060AA
:1042700040F0FD700860704781EA000200204FF0B6
:10428000070C00BF51B28CEA4203B1F1FF3FC8BF37
:104290005300072800F101001A46F3D3D8B2704743
:1042A000B0B52DED028B9FED3E1AB0EE408AB4EE14
:1042B000410AF1EE10FA18DDB4EE418AF1EE10FA7F
:1042C00024DD9FED380AB4EE408AF1EE10FA1DDCD1
:1042D00018EE100AFCF782F99FED2D0B53EC102B12
:1042E000FCF789F89FED2C0B05E018EE100AFCF79F
:1042F00075F99FED1F0B53EC102BFBF7D5FFFCF767
:1043000080F900EE100ABDEC028BB0BD9FED250ACE
:10431000B4EE408AF1EE10FA0CDD18EE100AFCF74C
:104320005DF99FED150B044653EC102B0D46FCF781
:104330000AF990B118EE100AFCF750F99FED0E0B38
:1043400053EC102BFCF7C9F8002804BFB7EE080A9D
:1043500038EE000ABDEC028BB0BD9FED090B204684
:1043600053EC102B2946FCF746F89FED070BC2E7EC
:104370003333333333330340333333333333424014
:10438000000000000000E83FE17A14AE47A125409C
:10439000333333333333EB3FAAF1D24D62101D4038
:1043A0000000004200000C42FDF72AFAFFF7A0FBD4
:1043B000FEF742FEFEF7CEFEFFF748F8FEF778FF65
:1043C000FEF7A8FEFEF7E6FFFFF75CF8FFF776F8CA
:1043D000FFF720F840F27C1040F23101C2F20000F9
:1043E000C2F200010122FEF7AFF940F2BC1040F228
:1043F0003201C2F20000C2F200010122FEF7A4F96C
:1044000040F2FC1040F23301C2F20000C2F200019F
:104410000122FEF799F940F23C2040F23401C2F249
:104420000000C2F200010122FEF78EF940F23C10BA
:10443000C2F20000FDF7FCFD40F26800C2F200008D
:10444000FEF7B6FC9FED0F0AFEF732FD40F2902416
:10445000C2F2000402E06420FCF73AFE2068013852
:104460000328FBD8DFE800F0050B0208FCF72CFD61
:10447000F1E7FCF78BFCF1E7FCF776FDEBE7FCF7E7
:10448000F7FCEBE7F6287C3FB0B5AAB00DF1680C5D
:104490008CE807002E982F991E9030981F91319923
:1044A0002090329821913399229034982391359914
:1044B00024903698259137992690389827913999E4
:1044C0006D4628903A9C2991284664211D93FBF75C
:1044D000C1FE3BAB284664212246199300F00EF83A
:1044E00082B21AA829464FF0FF33FEF7D3F92846C7
:1044F0006421FBF7AFFE2AB0B0BD00007CB50C0014
:104500001D461646014601D0601E00E00020CDE9A0
:104510000010064B6A462946304600F04FF9002C41
:1045200002D0009A002111707CBD0000EB4E000803
:10453000004870470000002010B52DED020B2DED56
:10454000088B84B09DED0C0B51EC100BFCF7F8F9C7
:1045500041EC180B9DED0C0B53EC182B51EC100B90
:10456000FBF743FF41EC190B0D989FED290B10F061
:10457000004F53EC102B51EC190B9FED21AB9FED2D
:1045800022BB0ED0FCF738FA0ED953EC1B2B51ECA2
:10459000190BFCF749FA1CD214E000BF41EC180BD0
:1045A00017E0FCF729FA06D253EC1A2B51EC180B42
:1045B000FBF71BFFF2E753EC1B2B51EC190BFCF73D
:1045C00033FA06D853EC1A2B51EC180BFBF76CFEA0
:1045D000E4E78DED028B9DED0C0B18EE901A10EEBA
:1045E000900A8DED000B61F31E0003909DED020B10
:1045F00004B0BDEC088B02B010BD0000000000004C
:10460000000000000000F03F000000000000E03F5C
:10461000000000000000E0BF02E008C8121F08C14F
:10462000002AFAD170477047002001E001C1121F33
:10463000002AFBD1704700002DE9FF5F82B0002106
:10464000DDE90430020DDDF840B0034318D044F634
:104650001050A2F2FF3242431514119801281FD0C6
:10466000A5EB0B00401C5FEA000A4FF000064E4F1E
:10467000DFF83891B046504615D5CAF1000413E072
:10468000119801244AA3012801D16FEA0B01029875
:10469000119AC0E90031C0E9024206B0BDE8F09FBE
:1046A000CBF10000DFE704460021404A491842EB05
:1046B0000450CDE9001012E0E00707D032463B4637
:1046C00040464946FBF797FE8046894632463B46C0
:1046D00010461946FBF78FFE06460F466410002C65
:1046E000EAD1DDE90401DDE90023BAF1000F06DAC1
:1046F000FBF781FE42464B46FBF77DFE05E0FCF7EB
:10470000AFF842464B46FCF7ABF804460E46002293
:10471000284BFCF789F903D84FF0FF30014607E03A
:104720000022254B20463146FBF7BEFDFCF74CF935
:10473000102409E0002C0ADB0A220023FBF740FDCD
:10474000039B30321A55641E50EA0102F2D1641CF8
:10475000039AC4F111031444119A012A03D00122CF
:1047600008430DD10AE0084304D000204FF0110B9C
:10477000119072E7A3EB0B056D1E0DE05B4504DDA8
:104780004FF0000205F1010504E003DA4FF00002EA
:10479000A5F10105002AECD002981199C0E9023177
:1047A000C0E9004579E70000000014400000F03F38
:1047B000300000000000F0430000E03F2DE9FF4F13
:1047C00095B09B468946064600250FE2252877D1FD
:1047D00000242746F84A0121059400E0044316F816
:1047E000013F203B01FA03F01042F7D130782A282C
:1047F00011D06FF02F033078A0F13002092A16D8BB
:10480000059A44F0020402EB820203EB42021044D8
:10481000761C0590EFE759F8042B0592002A03DA7D
:10482000504244F40054059044F00204761C307861
:104830002E2816D116F8010F44F004042A280DD0B2
:104840006FF02F023078A0F13003092B09D807EB65
:10485000870302EB4303C718761CF3E759F8047B80
:10486000761C30786C280FD006DC4C2817D06828CE
:104870000DD06A2814D104E0742810D07A280FD102
:104880000DE044F400140AE044F4801401E044F420
:1048900040147278824202D104F58014761C761C92
:1048A000307866280BD013DC582877D009DC002834
:1048B00075D04528F6D04628F4D047281AD19DE176
:1048C00018E0632835D0642879D0652812D195E1A5
:1048D000702873D008DC6728F1D069286FD06E2863
:1048E0000DD06F2806D1B5E073282CD0752875D06F
:1048F000782874D05A46179990476D1C75E1C4F317
:104900000250022809D003280DD0D9F8001004283D
:104910000DD00D6009F1040967E1D9F80010EA171C
:10492000C1E90052F6E7D9F800100D80F2E70D70EA
:10493000F0E719F8041B8DF8001000208DF8010035
:10494000EA46012003E059F804AB4FF0FF3061075D
:104950004FF0000102D40DE008F101018846B94290
:104960000FDA8045F8DB1AF808100029F4D108E0C6
:1049700008F1010188468142FADB1AF80810002983
:10498000F6D105985B46A0EB080721463846179AF2
:1049900000F094FA284400EB080507E04DE029E117
:1049A0000DE01AF8010B5A4617999047B8F1010823
:1049B000F7D25B4621463846179A13E142E00A22B5
:1049C0000092C4F302524FF0000A022A08D059F8AC
:1049D00004CB032A4FEAEC710AD00DE029E02AE06B
:1049E00009F1070121F00702F2E802C1914609E04E
:1049F0000FFA8CFC4FEAEC71042A03D14FFA8CFCBD
:104A00004FEAEC71002907DA0A460021DCF1000CBC
:104A100061EB02012D2202E0220504D52B228DF844
:104A20000420012203E0E20701D02022F7E79046AC
:104A300059E00A2102E010220DE010214FF0000A97
:104A400000910BE010224FF0000A44F00404082704
:104A5000009203E008224FF0000A0092C4F30252D1
:104A6000022A05D059F804CB0021032A08D009E016
:104A700009F1070121F00702F2E802C1914605E0C1
:104A80001FFA8CFC042A01D10CF0FF0C4FF0000837
:104A9000220728D5702806D0009B83F0100353EA24
:104AA0000A0305D00EE040228DF80420012208E020
:104AB0005CEA010206D030228DF804208DF8050052
:104AC00002229046009B83F0080353EA0A030AD1AE
:104AD0005CEA010201D1620705D530228DF804207D
:104AE0004FF001087F1E582804D034A003900EA870
:104AF00002900DE036A0F9E753466046009AFBF7B6
:104B00005FFB84460398825C0298401E029002700C
:104B10005CEA0100F0D1029806A9081A00F1200A07
:104B2000600702D524F4803400E00127574502DDF8
:104B3000A7EB0A0000E0002000EB0A0100900598B6
:104B40004144401A0590E00306D45B462146179A7B
:104B5000059800F0B3F90544002706E001A85A467D
:104B6000C05D179990476D1C7F1C4745F6DBE0033D
:104B70000CD55B462146179A059800F09FF905442D
:104B800004E030205A46179990476D1C0099481E42
:104B900000900029F5DC08E0029802995A46007856
:104BA000491C0291179990476D1CBAF10001AAF1B6
:104BB000010AF1DC65E100000928010030313233DF
:104BC0003435363738396162636465660000000049
:104BD0003031323334353637383941424344454633
:104BE0000000000000F058F90544761C30780028D9
:104BF0007FF4ECAD19B02846BDE8F08F620700D411
:104C0000062709F1070222F0070CFCE80223E1461F
:104C100003F000485FEA080C02D00FF2702C0DE0A0
:104C20005FEA045C02D50FF2682C07E05FEAC47CFF
:104C300002D00FF2602C01E0AFF2700C4FF0FF38A1
:104C400023F00043CDF850C065280CD006DC452881
:104C500009D046281DD047283DD13DE0662818D010
:104C600067287ED138E00021112F01DB112000E000
:104C7000781CCDE9000106A90EA8FFF7DDFCDDE9EF
:104C80000F010E9A03910021009207F1010A04918D
:104C90004DE04FF000400097CDE9011006A90EA8A5
:104CA000FFF7CAFCDDE90F0203920E9B1199002267
:104CB000DDF80CA00093049211B9791C00EB010AF5
:104CC000B7EB0A0004D4C0F1FF3007F1010A0490E9
:104CD000AAEB0700019044E0012F00DA0127002130
:104CE000112F01DD112000E03846CDE9000106A9B1
:104CF0000EA8FFF7A1FCDDE90F010E9A0391002138
:104D000004910092BA4621070CD40399514500DA68
:104D10008A46BAF1010F05DD009AAAF10101515C42
:104D2000302908D0B84202DA10F1040F06DA012166
:104D3000CDE9011015E0AAF10101E9E7002805DC41
:104D4000049901440491AAEB000102E0411C514581
:104D500000DD8A460499401A401C01904FF0004043
:104D60000290200704D40198504501DBCDF804805F
:104D700000208DF84F0002980DF14F07B0F1004F61
:104D800025D02B200E9002984FF0020800280CDA54
:104D9000404202902D200E9007E00A210298FBF776
:104DA0004CFC3031029007F8011DB8F10001A8F168
:104DB0000108F2DC02980028EFD1791E0E980870E5
:104DC000307800F0200040F0450007F8020D12A8EE
:104DD000C01B00F107081498007800B1012000EB17
:104DE0000A01019801EBE07105984144401A401E08
:104DF0000590E00306D45B462146179A059800F01B
:104E00005DF805441498007818B15A4617999047F0
:104E10006D1CE00324D55B462146179A059800F0E7
:104E20004DF805441CE00498002807DBDDE9030188
:104E3000884203DD0098405C179901E01799302003
:104E40005A469047049805F10105401C04900198CA
:104E5000401E019004D12E205A46179990476D1C90
:104E6000BAF10001AAF1010ADDDC05E017F8010B37
:104E70005A46179990476D1CB8F10001A8F1010836
:104E8000F4DC5B462146179A0598ABE62D0000003E
:104E90002B000000200000002DE9F0410446002511
:104EA0001E461746880404D405E039462020B04742
:104EB0006D1C641EF9D52846BDE8F0812DE9F0414E
:104EC000044600251E469046C80301D5302700E061
:104ED0002027880404D505E041463846B0476D1CBC
:104EE000641EF9D52846BDE8F0814A68002A06D03C
:104EF0000A68531C0B6010704868401E4860704779
:104F000000404040404040404040414141414140DC
:104F10004040404040404040404040404040404091
:104F20004005020202020202020202020202020220
:104F30000220202020202020202020020202020225
:104F4000020290909090909010101010101010107D
:104F50001010101010101010101010100202020289
:104F600002028888888888880808080808080808CD
:104F700008080808080808080808080802020202C9
:104F800040000000014F0008000000000000000089
:104F900001020304060708090000000001020304DF
:104FA00025630000C84F0008000000201800000022
:104FB00018460008E04F00081800002000230000F9
:104FC0002846000800000000000000000024F40053
:104FD00005000000050000000100000010000000B6
:040000050800018965
:00000001FF
